:1000710053455249414C20434F4D4D554E49434103
:1000810054494F4E20544553542057495448203821
:060091003035310A0D00BC
:1000E200E4FDFCC3ED9FEC9E50070DBD00010C80AA
:0100F200F21B
:0100F30022EA
:1000B600758920759850AC06AD077E707F8012005A
:0900C6001CEFF404F58DD28E222A
:0A010000C2983098FDC298AF992212
:0A010A00C2998F993099FDC2992225
:1000CF00120003FF600C12010A740129F9E43AFAD5
:0300DF0080EE228E
:100097007F807E251200B67F107E271200E27BFF4D
:0F00A7007A0079711200CF12010012010A80F85D
:030000000200F407
:0C00F400787FE4F6D8FD758107020097C4
:10000300BB010689828A83E0225002E722BBFE02FB
:09001300E32289828A83E493222E
:10001C00BC000BBE0029EF8DF084FFADF022E4CCC8
:10002C00F875F008EF2FFFEE33FEEC33FCEE9DEC91
:10003C00984005FCEE9DFE0FD5F0E9E4CEFD22EDD7
:10004C00F8F5F0EE8420D21CFEADF075F008EF2F21
:10005C00FFED33FD4007985006D5F0F222C398FD12
:05006C000FD5F0EA22AF
:00000001FF
