:1008BB004C434420444953504C4159002A2A203878
:0808CB00303531202A2A2000FB
:070883001208E67FE87E0386
:10088A00E4FDFCD3ED9FEE6480F8EC648098500799
:07089A000DBD00010C80EC14
:0108A1002234
:1008E6008F80C2A0D2A17F647E0012088AC2A102B4
:0208F600088A6E
:1008F8008F80D2A0D2A17F647E0012088AC2A10292
:02090800088A5B
:100861007F381208E67F507EC312088A7F0C120877
:10087100837F061208837F011208E67F887E1302B8
:02088100088AE3
:1008D3001208A2FF600C1208F8740129F9E43AFA2D
:0308E30080EE2282
:100800001208617F801208E67BFF7A0879BB120824
:10081000D37FC01208E67A0879C71208D3E4FBEB4D
:10082000FF3395E0FEC3EF9405EE64809480500F93
:100830007F1C1208E67F307E7512088A0B80E0E488
:10084000FBEBFF3395E0FEC3EF9405EE64809480EC
:1008500050B17F181208E67F307E7512088A0B802F
:01086000E0B7
:0300000002090AE8
:0C090A00787FE4F6D8FD75810702080034
:1008A200BB010689828A83E0225002E722BBFE0254
:0908B200E32289828A83E4932287
:00000001FF
